{
  "contractName": "Item",
  "abi": [
    {
      "inputs": [
        {
          "internalType": "contract ItemManager",
          "name": "_parentContract",
          "type": "address"
        },
        {
          "internalType": "uint256",
          "name": "_priceInWei",
          "type": "uint256"
        },
        {
          "internalType": "uint256",
          "name": "_index",
          "type": "uint256"
        }
      ],
      "stateMutability": "nonpayable",
      "type": "constructor"
    },
    {
      "stateMutability": "nonpayable",
      "type": "fallback"
    },
    {
      "inputs": [],
      "name": "index",
      "outputs": [
        {
          "internalType": "uint256",
          "name": "",
          "type": "uint256"
        }
      ],
      "stateMutability": "view",
      "type": "function"
    },
    {
      "inputs": [],
      "name": "paidWei",
      "outputs": [
        {
          "internalType": "uint256",
          "name": "",
          "type": "uint256"
        }
      ],
      "stateMutability": "view",
      "type": "function"
    },
    {
      "inputs": [],
      "name": "priceInWei",
      "outputs": [
        {
          "internalType": "uint256",
          "name": "",
          "type": "uint256"
        }
      ],
      "stateMutability": "view",
      "type": "function"
    },
    {
      "inputs": [],
      "name": "pricePaid",
      "outputs": [
        {
          "internalType": "uint256",
          "name": "",
          "type": "uint256"
        }
      ],
      "stateMutability": "view",
      "type": "function"
    },
    {
      "stateMutability": "payable",
      "type": "receive"
    }
  ],
  "bytecode": "0x608060405234801561001057600080fd5b506040516104f63803806104f68339818101604052606081101561003357600080fd5b81019080805190602001909291908051906020019092919080519060200190929190505050816000819055508060018190555082600460006101000a81548173ffffffffffffffffffffffffffffffffffffffff021916908373ffffffffffffffffffffffffffffffffffffffff16021790555050505061043d806100b96000396000f3fe6080604052600436106100435760003560e01c80632986c0e5146102fc5780633c8da5881461032757806383d12eef1461035257806389794d001461037d576102ed565b366102ed5760005434146100a2576040517f08c379a00000000000000000000000000000000000000000000000000000000081526004018080602001828103825260218152602001806103c16021913960400191505060405180910390fd5b60006003541461011a576040517f08c379a00000000000000000000000000000000000000000000000000000000081526004018080602001828103825260158152602001807f4974656d20697320616c7265616479207061696421000000000000000000000081525060200191505060405180910390fd5b346003600082825401925050819055506000600460009054906101000a900473ffffffffffffffffffffffffffffffffffffffff1673ffffffffffffffffffffffffffffffffffffffff1634600154604051602401808281526020019150506040516020818303038152906040527f800fb83f000000000000000000000000000000000000000000000000000000007bffffffffffffffffffffffffffffffffffffffffffffffffffffffff19166020820180517bffffffffffffffffffffffffffffffffffffffffffffffffffffffff83818316178352505050506040518082805190602001908083835b602083106102295780518252602082019150602081019050602083039250610206565b6001836020036101000a03801982511681845116808217855250505050505090500191505060006040518083038185875af1925050503d806000811461028b576040519150601f19603f3d011682016040523d82523d6000602084013e610290565b606091505b50509050806102ea576040517f08c379a00000000000000000000000000000000000000000000000000000000081526004018080602001828103825260268152602001806103e26026913960400191505060405180910390fd5b50005b3480156102f957600080fd5b50005b34801561030857600080fd5b506103116103a8565b6040518082815260200191505060405180910390f35b34801561033357600080fd5b5061033c6103ae565b6040518082815260200191505060405180910390f35b34801561035e57600080fd5b506103676103b4565b6040518082815260200191505060405180910390f35b34801561038957600080fd5b506103926103ba565b6040518082815260200191505060405180910390f35b60015481565b60005481565b60035481565b6002548156fe576520646f6e277420737570706f7274207061727469616c207061796d656e7473746865207472616e73616374696f6e20686173206661696c65642c2063616e63656c6c696e67a264697066735822122079b915a1d489c6d124a8fa7e513c5fdb36af458da201b2bd24f473aa77c8fe9064736f6c634300060c0033",
  "immutableReferences": {},
  "source": "// SPDX-License-Identifier: MIT\r\npragma solidity ^0.6.0;\r\nimport \"./ItemManager.sol\";\r\n\r\ncontract Item{\r\n    uint public priceInWei;\r\n    uint public index;\r\n    uint public pricePaid;\r\n    uint public paidWei;\r\n    \r\n    ItemManager parentContract;\r\n    \r\n    constructor (ItemManager _parentContract, uint _priceInWei, uint _index) public {\r\n        priceInWei = _priceInWei;\r\n        index = _index;\r\n        parentContract =_parentContract;\r\n    }\r\n    \r\n    receive() external payable {\r\n        require(msg.value == priceInWei, \"We don't support partial payments\");\r\n        require(paidWei == 0, \"Item is already paid!\");\r\n        paidWei += msg.value;\r\n        (bool success, ) = address(parentContract).call{value:msg.value}(abi.encodeWithSignature(\"triggerPayment(uint256)\", index));\r\n        require(success, \"the transaction has failed, cancelling\");\r\n        \r\n    }\r\n    fallback() external{\r\n        \r\n    }\r\n}\r\n",
  "sourcePath": "C:\\Users\\padma\\paddy\\truff\\contracts\\Item.sol",
  "compiler": {
    "name": "solc",
    "version": "0.6.12+commit.27d51765.Emscripten.clang"
  },
  "schemaVersion": "3.4.3",
  "updatedAt": "2021-10-26T17:10:28.732Z",
  "devdoc": {
    "kind": "dev",
    "methods": {},
    "version": 1
  },
  "userdoc": {
    "kind": "user",
    "methods": {},
    "version": 1
  }
}