{
  "contractName": "ItemManager",
  "abi": [
    {
      "anonymous": false,
      "inputs": [
        {
          "indexed": false,
          "internalType": "uint256",
          "name": "_itemIndex",
          "type": "uint256"
        },
        {
          "indexed": false,
          "internalType": "uint256",
          "name": "_state",
          "type": "uint256"
        },
        {
          "indexed": false,
          "internalType": "address",
          "name": "_itemAddress",
          "type": "address"
        }
      ],
      "name": "SupplyChainStep",
      "type": "event"
    },
    {
      "inputs": [
        {
          "internalType": "uint256",
          "name": "",
          "type": "uint256"
        }
      ],
      "name": "items",
      "outputs": [
        {
          "internalType": "contract Item",
          "name": "_item",
          "type": "address"
        },
        {
          "internalType": "enum ItemManager.SupplyChainSteps",
          "name": "_state",
          "type": "uint8"
        },
        {
          "internalType": "string",
          "name": "_identifier",
          "type": "string"
        },
        {
          "internalType": "uint256",
          "name": "_itemPrice",
          "type": "uint256"
        }
      ],
      "stateMutability": "view",
      "type": "function"
    },
    {
      "inputs": [
        {
          "internalType": "string",
          "name": "_identifier",
          "type": "string"
        },
        {
          "internalType": "uint256",
          "name": "_itemPrice",
          "type": "uint256"
        }
      ],
      "name": "createItem",
      "outputs": [],
      "stateMutability": "nonpayable",
      "type": "function"
    },
    {
      "inputs": [
        {
          "internalType": "uint256",
          "name": "_itemIndex",
          "type": "uint256"
        }
      ],
      "name": "triggerDelivery",
      "outputs": [],
      "stateMutability": "nonpayable",
      "type": "function"
    }
  ],
  "bytecode": "0x608060405234801561001057600080fd5b50610c64806100206000396000f3fe608060405234801561001057600080fd5b50600436106100415760003560e01c80638c55174214610046578063bfb231d21461010b578063cd31831e146101e8575b600080fd5b6101096004803603604081101561005c57600080fd5b810190808035906020019064010000000081111561007957600080fd5b82018360208201111561008b57600080fd5b803590602001918460018302840111640100000000831117156100ad57600080fd5b91908080601f016020809104026020016040519081016040528093929190818152602001838380828437600081840152601f19601f82011690508083019250505050505050919291929080359060200190929190505050610216565b005b6101376004803603602081101561012157600080fd5b81019080803590602001909291905050506103f2565b604051808573ffffffffffffffffffffffffffffffffffffffff16815260200184600281111561016357fe5b815260200180602001838152602001828103825284818151815260200191508051906020019080838360005b838110156101aa57808201518184015260208101905061018f565b50505050905090810190601f1680156101d75780820380516001836020036101000a031916815260200191505b509550505050505060405180910390f35b610214600480360360208110156101fe57600080fd5b81019080803590602001909291905050506104e7565b005b600030826001546040516102299061068e565b808473ffffffffffffffffffffffffffffffffffffffff1681526020018381526020018281526020019350505050604051809103906000f080158015610273573d6000803e3d6000fd5b50905080600080600154815260200190815260200160002060000160006101000a81548173ffffffffffffffffffffffffffffffffffffffff021916908373ffffffffffffffffffffffffffffffffffffffff160217905550816000806001548152602001908152602001600020600201819055506000806000600154815260200190815260200160002060000160146101000a81548160ff0219169083600281111561031c57fe5b0217905550826000806001548152602001908152602001600020600101908051906020019061034c92919061069b565b507fa4035636e99f06b7651a604c1019fa4e8779fe68ef27eeb74dff2de348f6199b600154600080600154815260200190815260200160002060000160149054906101000a900460ff1660028111156103a157fe5b83604051808481526020018381526020018273ffffffffffffffffffffffffffffffffffffffff168152602001935050505060405180910390a1600160008154809291906001019190505550505050565b60006020528060005260406000206000915090508060000160009054906101000a900473ffffffffffffffffffffffffffffffffffffffff16908060000160149054906101000a900460ff1690806001018054600181600116156101000203166002900480601f0160208091040260200160405190810160405280929190818152602001828054600181600116156101000203166002900480156104d75780601f106104ac576101008083540402835291602001916104d7565b820191906000526020600020905b8154815290600101906020018083116104ba57829003601f168201915b5050505050908060020154905084565b600160028111156104f457fe5b60008083815260200190815260200160002060000160149054906101000a900460ff16600281111561052257fe5b14610595576040517f08c379a000000000000000000000000000000000000000000000000000000000815260040180806020018281038252601e8152602001807f546865204974656d206973206d6f76656420746f206e6578742073746570000081525060200191505060405180910390fd5b600260008083815260200190815260200160002060000160146101000a81548160ff021916908360028111156105c757fe5b02179055507fa4035636e99f06b7651a604c1019fa4e8779fe68ef27eeb74dff2de348f6199b8160008084815260200190815260200160002060000160149054906101000a900460ff16600281111561061c57fe5b60008085815260200190815260200160002060000160009054906101000a900473ffffffffffffffffffffffffffffffffffffffff16604051808481526020018381526020018273ffffffffffffffffffffffffffffffffffffffff168152602001935050505060405180910390a150565b6104f68061073983390190565b828054600181600116156101000203166002900490600052602060002090601f016020900481019282601f106106dc57805160ff191683800117855561070a565b8280016001018555821561070a579182015b828111156107095782518255916020019190600101906106ee565b5b509050610717919061071b565b5090565b5b8082111561073457600081600090555060010161071c565b509056fe608060405234801561001057600080fd5b506040516104f63803806104f68339818101604052606081101561003357600080fd5b81019080805190602001909291908051906020019092919080519060200190929190505050816000819055508060018190555082600460006101000a81548173ffffffffffffffffffffffffffffffffffffffff021916908373ffffffffffffffffffffffffffffffffffffffff16021790555050505061043d806100b96000396000f3fe6080604052600436106100435760003560e01c80632986c0e5146102fc5780633c8da5881461032757806383d12eef1461035257806389794d001461037d576102ed565b366102ed5760005434146100a2576040517f08c379a00000000000000000000000000000000000000000000000000000000081526004018080602001828103825260218152602001806103c16021913960400191505060405180910390fd5b60006003541461011a576040517f08c379a00000000000000000000000000000000000000000000000000000000081526004018080602001828103825260158152602001807f4974656d20697320616c7265616479207061696421000000000000000000000081525060200191505060405180910390fd5b346003600082825401925050819055506000600460009054906101000a900473ffffffffffffffffffffffffffffffffffffffff1673ffffffffffffffffffffffffffffffffffffffff1634600154604051602401808281526020019150506040516020818303038152906040527f800fb83f000000000000000000000000000000000000000000000000000000007bffffffffffffffffffffffffffffffffffffffffffffffffffffffff19166020820180517bffffffffffffffffffffffffffffffffffffffffffffffffffffffff83818316178352505050506040518082805190602001908083835b602083106102295780518252602082019150602081019050602083039250610206565b6001836020036101000a03801982511681845116808217855250505050505090500191505060006040518083038185875af1925050503d806000811461028b576040519150601f19603f3d011682016040523d82523d6000602084013e610290565b606091505b50509050806102ea576040517f08c379a00000000000000000000000000000000000000000000000000000000081526004018080602001828103825260268152602001806103e26026913960400191505060405180910390fd5b50005b3480156102f957600080fd5b50005b34801561030857600080fd5b506103116103a8565b6040518082815260200191505060405180910390f35b34801561033357600080fd5b5061033c6103ae565b6040518082815260200191505060405180910390f35b34801561035e57600080fd5b506103676103b4565b6040518082815260200191505060405180910390f35b34801561038957600080fd5b506103926103ba565b6040518082815260200191505060405180910390f35b60015481565b60005481565b60035481565b6002548156fe576520646f6e277420737570706f7274207061727469616c207061796d656e7473746865207472616e73616374696f6e20686173206661696c65642c2063616e63656c6c696e67a264697066735822122079b915a1d489c6d124a8fa7e513c5fdb36af458da201b2bd24f473aa77c8fe9064736f6c634300060c0033a26469706673582212201a645238a07ec3e403ff4272444f61e84a5a2aa958f3345e388e1fab5063399664736f6c634300060c0033",
  "immutableReferences": {},
  "source": "// SPDX-License-Identifier: MIT\r\npragma solidity ^0.6.0;\r\nimport \"./Item.sol\";\r\n\r\ncontract ItemManager {\r\n\r\n    enum SupplyChainSteps{Created, Paid, Delivered}\r\n\r\n    struct List_Item {\r\n        Item _item;\r\n        ItemManager.SupplyChainSteps _state;\r\n        string _identifier;\r\n        uint _itemPrice;\r\n    }\r\n    mapping(uint => List_Item) public items;\r\n    uint itemIndex;\r\n\r\n    event SupplyChainStep(uint _itemIndex, uint _state, address _itemAddress);\r\n\r\n    function createItem(string memory _identifier, uint _itemPrice) public {\r\n        Item item = new Item(this, _itemPrice, itemIndex);\r\n        items[itemIndex]._item = item; \r\n        items[itemIndex]._itemPrice = _itemPrice;\r\n        items[itemIndex]._state = SupplyChainSteps.Created;\r\n        items[itemIndex]._identifier = _identifier;\r\n        emit SupplyChainStep(itemIndex, uint(items[itemIndex]._state), address(item));\r\n        itemIndex++;\r\n    \r\n    }   \r\n\r\n    function triggerDelivery(uint _itemIndex) public {\r\n        require(items[_itemIndex]._state == SupplyChainSteps.Paid, \"The Item is moved to next step\");\r\n        items[_itemIndex]._state = SupplyChainSteps.Delivered;\r\n        emit SupplyChainStep(_itemIndex, uint(items[_itemIndex]._state), address(items[_itemIndex]._item));\r\n        \r\n    }\r\n}",
  "sourcePath": "C:\\Users\\padma\\paddy\\truff\\contracts\\ItemManager.sol",
  "compiler": {
    "name": "solc",
    "version": "0.6.12+commit.27d51765.Emscripten.clang"
  },
  "schemaVersion": "3.4.3",
  "updatedAt": "2021-10-26T17:10:28.735Z",
  "devdoc": {
    "kind": "dev",
    "methods": {},
    "version": 1
  },
  "userdoc": {
    "kind": "user",
    "methods": {},
    "version": 1
  }
}